:020000040800F2
:10000000881400209D010008EF180008ED17000873
:10001000ED18000807030008ED21000800000000AB
:10002000000000000000000000000000A51B000808
:100030000903000800000000F1180008A71B0008D1
:10004000B7010008B7010008B7010008B7010008B0
:10005000B7010008B7010008B7010008B7010008A0
:10006000B7010008B7010008B7010008B701000890
:10007000B7010008B7010008B7010008B701000880
:10008000B7010008B7010008B7010008B701000870
:10009000B7010008B7010008B7010008B701000860
:1000A000B7010008B7010008B7010008B701000850
:1000B000891C0008B7010008B7010008B701000853
:1000C000B7010008B7010008B7010008B701000830
:1000D000B7010008B7010008B7010008B701000820
:1000E000B7010008B7010008B7010008B701000810
:1000F000B7010008B7010008B7010008B701000800
:10010000B7010008B7010008B7010008B7010008EF
:10011000B7010008B7010008B7010008B7010008DF
:10012000B7010008B7010008B7010008B7010008CF
:10013000B7010008B7010008B7010008B7010008BF
:10014000B7010008B7010008B7010008B7010008AF
:10015000B7010008B7010008B7010008B70100089F
:10016000B7010008B7010008B7010008B70100088F
:10017000B7010008B70100080000000000000000FF
:10018000B7010008B7010008DFF80CD000F07EF8D6
:10019000004800472D2200088814002006488047A8
:1001A00006480047FEE7FEE7FEE7FEE7FEE7FEE75C
:1001B000FEE7FEE7FEE7FEE7451C000889010008B0
:1001C0002DE9F05F0546002092469B46884606468C
:1001D000814640241BE0284641464746224600F01F
:1001E00044F853465A46C01A914110D31146184656
:1001F000224600F02BF82D1A67EB01084F462246E5
:100200000120002100F022F817EB00094E41201ECA
:10021000A4F10104DFDC484631462A46434600F09B
:1002200000B830BCBDE8C09FD2B201E000F8012B9D
:10023000491EFBD270470022F6E710B513460A4666
:1002400004461946FFF7F0FF204610BD202A04DBC4
:10025000203A00FA02F1002070479140C2F12003D9
:1002600020FA03F3194390407047202A04DB203A18
:1002700021FA02F00021704721FA02F3D040C2F1C6
:10028000200291400843194670470000064C074D74
:1002900006E0E06840F0010394E807009847103456
:1002A000AC42F6D3FFF774FF80230008A0230008B8
:1002B00070B58C1810F8015B15F0070301D110F828
:1002C000013B2A1106D110F8012B03E010F8016B55
:1002D00001F8016B5B1EF9D12B0705D40023521ED8
:1002E0000DD401F8013BFAE710F8013BCB1A921C40
:1002F00003E013F8015B01F8015B521EF9D5A1423E
:10030000D8D3002070BDFEE770472DE9F0470446C2
:10031000407900270E4601280BD04FF0010984F8E0
:10032000059002202071306802F01005042803D0E7
:1003300043E00220BDE8F0874FF0030802BB00F065
:10034000EFF9074604E000F0EBF9C01B01280FD8D5
:100350002068406B0004F6D4012000F0DFF821682B
:10036000B069086416E000F0DBF9C01B012807D96A
:10037000206940F00800206184F804800320D9E758
:100380002068406B0028EEDB012000F0C7F82168F0
:10039000B06948642068816C40F2FF32AA40914302
:1003A000F269AA40114381642068C16CFF22AA400F
:1003B0009143326AAA401143C1643069012808D1CF
:1003C0002268916B1F20A84081437069A8400843B0
:1003D00090632268D16B0720A8408143B3683068DE
:1003E0001843F3681843A8400843D06320680168A5
:1003F0004FF48042AA40914301602268116840F6A0
:10040000FC70A84081437068A840084310602068D1
:100410000168C022AA409143016084F80490002042
:10042000607187E770B5040003D02079002510B112
:1004300005E0012070BD6571204600F007F802203C
:100440002071256101202071002070BD10B586B09B
:10045000044614216846FFF7EEFE114920688842E1
:100460001BD11048816D41F000518165816D01F013
:1004700000510591C16C41F00101C164C06C694635
:1004800000F0010005903020009003200190002032
:1004900002904FF0904000F053F806B010BD0000FD
:1004A000007400400010024018B504680094006811
:1004B000104421B1143000900360002018BD0830B2
:1004C000F9E770B54279012A14D001224271022362
:1004D000037103681D6801F0100602FA06F4254353
:1004E0001D60002901680B6806D0C3F38343012B0C
:1004F0000AD00DE0022070BDC3F38303012B07D1A6
:100500004B6843F0010302E04B6843F002034B6089
:10051000027100214171084670BD000070B50446AB
:1005200000F0FEF80546601C02D004484068044410
:1005300000F0F6F8401BA042FAD370BDA40F0020D3
:100540002DE9F84FDFF898B100234FF0010C4FF080
:10055000030A4FF00F090BF1040EB9E00CFA03F493
:10056000224070D04D68022D01D0122D0ED1DD0831
:1005700000EB8508D8F820505E07F70E09FA07F659
:10058000B5430E69BE402E43C8F8206007685E0080
:1005900091F804800AFA06F508F00308AF4308FA58
:1005A00006F848EA0708C0F800804F68012F05D018
:1005B000022F03D0112F01D0122F13D1D0F80880B1
:1005C000CF6828EA0508B74047EA08078760D0F8EF
:1005D00004800F7928EA0408C7F300179F4047EA10
:1005E00008074760D1F804806FEA0807BF0706D103
:1005F000C76AA743C8F3C0049C403C43C462C468B4
:10060000AC438D68B5402543C5604C68E4005ED5B9
:10061000344C256E45F001052566246E23F0030554
:1006200004F001040094304C2E19B4689D072F0F7C
:1006300009FA07F5AC43B0F1904F05D02B4DA84215
:1006400004D101251CE042E0002519E0284DA84214
:1006500001D1022514E0274DA84201D103250FE066
:10066000254DA84201D104250AE0244DA84201D11C
:10067000052505E0224DA84201D1062500E0072509
:10068000BD402543B560DBF800405D464E689443AD
:10069000F60300D514432C60DEF8004075464E6822
:1006A0009443B60300D514432C600D4D08352C68D7
:1006B0004E689443F60200D514432C60084D0C3567
:1006C0002C684E689443B60200D514432C605B1C22
:1006D0000A6832FA03F57FF441AF00F013B8000066
:1006E00000040140001002400000014000040048E6
:1006F00000080048000C00480010004800140048A2
:100700000018004818BCBDE8E08F0069084000D020
:10071000012070470AB18161704781627047000013
:100720000148806870470000A40F002002488168DB
:100730004268114481607047A40F002010B5002466
:10074000032000F071F8002000F008F808B101243F
:1007500001E000F025F8204610BD000070B50E4EF7
:1007600005460024706898B14FF47A71B1FBF0F03F
:100770000A490968B1FBF0F000F005FE40B9102D00
:1007800006D200222946501E00F02EF8356000E007
:100790000124204670BD0000A40F0020B00F0020EF
:1007A000094808B5016E41F001010166016E01F0D2
:1007B00001010091816D41F080518165806D00F0F3
:1007C0008050009008BD000000100240002809DBA6
:1007D00000F01F02012191404009800000F1E0205B
:1007E000C0F8001170470000F0B40E4B1B680C46B7
:1007F000C3F30223C3F10705042D00D90425191DF5
:10080000072901D2002300E0DB1E012606FA05F1CC
:10081000491E214099409E40761E16403143F0BC4F
:1008200001F0E5BC0CED00E0064900F007020868A5
:100830004FF6FF03184040EA0220034A10430860C5
:10084000704700000CED00E00000FA051649B0F515
:10085000007F0868C0F3412009D0022805D008684D
:1008600020F4C06040F480600860002070470128D8
:10087000FBD0086820F4C06040F4007008600B48AA
:100880003222006850430A4AB0FBF2F0401C00E0FC
:10089000401E4A69520501D50028F9D14869400532
:1008A000E3D503207047000000700040B00F002027
:1008B00040420F000248006800F4C060704700002A
:1008C000007000402DE9F84F044600270088E54DF0
:1008D0003E46010504F1200B1DD5606E78B1B0F5E0
:1008E000800F11D0B0F5000F04D0B0F5400F22D02A
:1008F00001270FE0E86840F48030E8601BE0002149
:10090000201D00F0F7FF03E00021584601F088F8B1
:10091000070010D03E462088C00426D5A06EC0B186
:10092000B0F1807F1AD0B0F1007F0DD0B0F1407FE0
:1009300019D0012718E0D5F88800616E20F4400036
:100940000843C5F88800E6E7E86840F48030E860CE
:1009500009E00021201D00F0CDFF03E000215846F2
:1009600001F05EF80746F7B13E46206880033AD5AD
:10097000A86D4FF00008C00009D4A86D40F0805069
:10098000A865A86D4FF0010800F080500090DFF8D6
:10099000D8A2DAF8001041F48071CAF80010FFF70D
:1009A000BFFE814610E0D5F88800A16E20F04070AF
:1009B0000843C5F88800D8E7FFF7B2FEA0EB0900AE
:1009C000022801D9032705E0DAF80000C005F3D5B5
:1009D000002F7CD04FEA0706B8F1000F03D0A86DB6
:1009E00020F08050A8652078C00707D0D5F888008F
:1009F000A16B20F003000843C5F888002078800729
:100A000007D5D5F88800E16B20F00C000843C5F845
:100A100088002078400707D5D5F88800216C20F0A1
:100A200030000843C5F888002078000707D5D5F8BE
:100A30008800616C20F0C0000843C5F88800207869
:100A4000C00607D5D5F88800A16C20F44070084393
:100A5000C5F888002078800607D5D5F88800E16CB5
:100A600020F440600843C5F888002088800507D539
:100A7000D5F88800E16D20F440200843C5F88800CF
:100A80002088400507D5D5F88800216E20F4401055
:100A90000843C5F888002078400607D5D5F88800B7
:100AA000216D20F440500843C5F8880020780006E6
:100AB00007D5D5F88800616D20F440400843C5F89B
:100AC00088002088C00509D5D5F8880000E01CE022
:100AD000A16D20F440300843C5F8880020884FF00D
:100AE000006780044FF080684FD5D5F88800E16E2C
:100AF00020F040600843C5F88800E06EB8423CD161
:100B0000E86840F48010E8603FE0D5F8900010F409
:100B1000407015D0D4F88410814211D0D5F89000DF
:100B2000D5F8901020F4407041F48031C5F8901051
:100B3000D5F8901021F48031C5F89010C5F89000D8
:100B4000C00710D0FFF7ECFD074641F2883906E0F8
:100B5000FFF7E6FDC11B494501D903263CE7D5F85F
:100B600090008007F4D5D5F89000D4F8841020F4D4
:100B700040700843C5F890002EE7404505D101219B
:100B8000201D00F0B7FE00B106462068000317D50F
:100B9000D5F88800216F20F040600843C5F8880030
:100BA000206FB84204D1E86840F48010E86007E0A4
:100BB000404505D10121201D00F09CFE00B10646F4
:100BC0002068400317D5D5F88800616F20F0406099
:100BD0000843C5F88800606FB84204D1E86840F463
:100BE0008010E86007E0404505D10121201D00F09C
:100BF00081FE00B10646208840041AD5D5F8880049
:100C0000A16F20F040500843C5F88800A06FB0F1F4
:100C1000805F03D0B0F1005F05D00AE00221201D03
:100C200000F068FE03E00221584600F0F9FE00B132
:100C300006462088000407D5D5F88800E16F20F02B
:100C400080400843C5F888002068C00307D555F8E0
:100C5000880FD4F8801020F0004008432860304608
:100C600000F004B8001002400070004018BCBDE85D
:100C7000E08F00002DE9F0470F46050058D0404EA8
:100C8000306800F00700B84209D2306820F0070051
:100C900038433060306800F00700B84248D1287807
:100CA000384CC0072CD06868032811D0022812D015
:100CB000216898B1490500293ADAA16821F00301B9
:100CC0000143A160FFF72CFD804641F2883910E016
:100CD00021688901EFE721688903ECE78907EAE7E2
:100CE000FFF71EFDA0EB0801494502D90320BDE82E
:100CF000F087A068696800F00C00B0EB810FEFD1BD
:100D00002878800705D5A068A96820F0F00008437E
:100D1000A060306800F00700B8420BD9306820F0BE
:100D2000070038433060306800F00700B84201D057
:100D30000120DCE72878400705D5A068E96820F4A1
:100D4000E0600843A0602878000706D5A0682969FC
:100D500020F4605040EAC100A06000F045F8A168AE
:100D6000094AC1F30311515C01F01F01C840074952
:100D7000086007480068BDE8F047FFF7EFBC0000D7
:100D8000002002400010024038230008B00F00206D
:100D9000A40F00200148006870470000B00F002039
:100DA0000548064900688968054AC1F30221515C7B
:100DB00001F01F01C8407047B00F00200010024032
:100DC000782300080548064900688968054AC1F388
:100DD000C221515C01F01F01C8407047B00F0020D4
:100DE000001002407823000870B5254900231846FA
:100DF0008A68CC6812F00C0204F00306214C4FEA1A
:100E0000640509D00C2A05D0042A32D0082A00D162
:100E1000284670BD012E10D10B681B0704D4D1F8F1
:100E20009430C3F3032302E00B68C3F30313164E9D
:100E300056F82330DAB10C2AEBD1C86800F0030071
:100E4000022818D0032818D01846CA68CB68C2F305
:100E50000212C3F306234343521CB3FBF2F2C868E9
:100E6000C0F34160401C4000B2FBF0F070BD18467A
:100E700070BD204670BD2046E7E72846E5E7000044
:100E8000001002400024F400482300082DE9F84334
:100E900004006ED0FD4DA86800F00C06E86800F074
:100EA00003072078C00663D576B10C2E01D1012F3F
:100EB0000AD0A0690028286878D040F00100286096
:100EC000FFF72EFC80465BE02868800702D5A0690A
:100ED0000028DED0216A2868000703D5286800F0C2
:100EE000F00004E0D5F89400F02202EA10108142EC
:100EF00016D9084600F018FE00283AD1286840F0BC
:100F0000080028602868216A20F0F0000843286063
:100F10006868E16920F47F4040EA0120686015E0DC
:100F2000286840F0080028602868216A20F0F00056
:100F3000084328606868E16920F47F4040EA0120A6
:100F40006860206A00F0F0FD0028D6D1FFF74CFF62
:100F5000A968CF4AC1F30311515C01F01F01C840D9
:100F6000CC490860CC480068FFF7F8FB00287DD129
:100F70002DE0C9E0FFF7D4FBA0EB0800022876D8EB
:100F800028688007F6D5286840F00800286028689F
:100F9000216A20F0F000084328606868E16920F4C5
:100FA0007F4040EA0120686011E0FFE720F0010087
:100FB0002860FFF7B5FB804606E000BFFFF7B0FBF7
:100FC000A0EB08000228DAD828688007F6D4207839
:100FD000C00740D0082E18D00C2E01D1032F14D0FA
:100FE0006068B0F5803F17D0B0F5A02F286817D003
:100FF00020F480302860286820F480202860606811
:10100000E0B1FFF78DFB804614E02868800322D50D
:101010006068002878D01EE0286840F48030EDE752
:1010200040F480202860F7E7FFF77AFBA0EB080088
:101030006428A4D828688003F6D50CE0FFF770FB7D
:10104000804605E0FFF76CFBA0EB0800642896D80B
:1010500028688003F6D4207880073BD5042E11D071
:101060000C2E01D1022F0DD0E06801E03EE19FE09F
:10107000002828681ED040F480702860FFF750FBDD
:1010800007460CE0286840050CD5E0680028C1D070
:1010900008E000BFFFF744FBC01B022893D8286874
:1010A0004005F7D56868217C20F0F85040EA0160DF
:1010B00068600FE020F480702860FFF731FB07467E
:1010C00005E000BFFFF72CFBC01B022870D8286882
:1010D0004005F7D42078000729D560690028D5F8A5
:1010E000940012D040F00100C5F89400FFF718FBFF
:1010F000074604E0FFF714FBC01B022858D8D5F8B8
:1011000094008007F6D512E029E120F00100C5F82F
:101110009400FFF705FB074605E000BFFFF700FB63
:10112000C01B022844D8D5F894008007F6D4207854
:10113000400768D5A86D0027C00008D4A86D40F00E
:101140008050A865A86D012700F08050009053489A
:101150000168C90512D40168814641F480710160BB
:10116000FFF7DEFA804605E0FFF7DAFAA0EB0800A9
:1011700002281DD8D9F80000C005F5D5A0680128BF
:1011800017D00528D5F8900018D020F00100C5F838
:101190009000D5F8900020F0040000BFC5F8900042
:1011A000A06841F28839D0B1FFF7BAFA804611E061
:1011B0006BE0D5F8900040F00100EFE740F004004C
:1011C000C5F89000F5E700BFFFF7AAFAA0EB080109
:1011D00049455AD8D5F890008007F5D50EE0FFF7BD
:1011E0009FFA804606E000BFFFF79AFAA0EB0801DD
:1011F00049457AD8D5F890008007F5D41FB1A86D7D
:1012000020F08050A865A06AF0B30C2E75D002289B
:10121000286820F08070286004D0286810F0205FD3
:1012200051D054E0FFF77CFA064604E0FFF778FA65
:10123000801B022859D828688001F7D4D4E90B0113
:101240006FF00F0202EB01110843A18F520449080D
:1012500002EB4151626B41EA0221084394F84010CD
:101260004FF07E42490802EB41610843A16B090936
:1012700040EA4140E9680A4A11400843E8602868AA
:1012800040F0807028600DE06BE02EE0001002401E
:1012900038230008B00F0020A40F00200070004089
:1012A0008C809DF9E86840F08070E860FFF738FABC
:1012B000044604E0FFF734FA001B022815D828681A
:1012C0008001F7D54DE0E86820F00300E860E868A9
:1012D00025490840E860FFF723FA044609E000BF0B
:1012E000FFF71EFA001B022803D90320BDE8F8838C
:1012F00003E028688001F3D433E00128F6D0E868E1
:10130000E26A00F00301914229D1216B00F07002E2
:1013100009011039914222D1626B00F4FE41B1EB18
:10132000022F1CD1A26B00F40031072A01D0012248
:1013300000E00022914212D1A18F00F4C0024908BE
:101340004905A1F50011914209D194F8401000F02F
:10135000C06049084906A1F10071814201D0012015
:10136000C4E70020C2E70000FFFFEEFE4FF0E021DF
:101370000428086903D020F004000861704740F099
:101380000400FAE7704710B5401EB0F1807F01D32A
:10139000012010BD4FF0E02460610F21601700F0C4
:1013A00026FF0020A06107202061002010BD10B59D
:1013B000FFF7E8FF10BD70477047704770B590F8B1
:1013C0003C20012A24D0012480F83C40022280F8ED
:1013D0003D200268536895680E4EB24202D00E4E10
:1013E000B24203D123F470064B68334323F07006F6
:1013F0000B688968334325F08005294353600268F0
:10140000916080F83D40002180F83C10084670BD96
:10141000022070BD002C01400034014010B50400D2
:1014200003D094F83D0010B107E0012010BD00206A
:1014300084F83C00204600F00DF8022084F83D00BE
:10144000211D206800F02CFC012084F83D000020C4
:1014500010BD000008B50068B0F1804F12D10A48F5
:10146000816D41F001018165806D002200F0010075
:10147000009011461C20FFF7B7F9BDE808401C207A
:10148000FFF7A4B908BD0000001002400168CA6857
:1014900042F00102CA6001688868064A10400628C6
:1014A00006D0B0F5803F03D0086840F00100086026
:1014B000002070470700010070B5044690F83C001A
:1014C000012817D0012584F83C50022084F83D0003
:1014D000226890682E4B184020F47F409060086886
:1014E000502830D00DDC20284DD005DC98B31028D2
:1014F0003BD148E0022070BD302844D0402834D190
:1015000039E0602828D0702806D0B0F5805F2CD054
:10151000B0F5005F29D10AE0CB68D1E9012120684C
:1015200000F01EFC2068816841F0770109E0CB687B
:10153000D1E90121206800F013FC2068816841F4A2
:101540008041816011E0CA684968206800F01AFC97
:101550005021206807E016E0CA684968206800F05A
:1015600022FC6021206800F005FC84F83D5000203A
:1015700084F83C0070BDCA684968206800F002FC2D
:1015800040212068EFE7226801461046EBE70000A3
:1015900088FFFEFF704770B50446006801694FF090
:1015A0000005C943890715D4C168C943890711D407
:1015B000E91E0161012020772068806980072046AC
:1015C00002D0FFF7E7FF04E000F0A7F8204600F0A4
:1015D000A5F8257720680169C943490717D4C16870
:1015E000C943490713D46FF0040101610220207739
:1015F0002068806910F4407F204602D0FFF7CAFFC0
:1016000004E000F08AF8204600F088F8257720688A
:101610000169C943090716D4C168C943090712D42F
:101620006FF008010161042020772068C0698007FD
:10163000204602D0FFF7AEFF04E000F06EF820462F
:1016400000F06CF8257720680169C943C90617D4F2
:10165000C168C943C90613D46FF0100101610820A5
:1016600020772068C06910F4407F204602D0FFF741
:1016700091FF04E000F051F8204600F04FF8257784
:1016800020680169C943C90708D1C168C943C907AE
:1016900004D1891E0161204600F041F820680169EB
:1016A000C943090609D4C168C943090605D46FF0C6
:1016B000800101612046FFF77FFE20680169C94370
:1016C000C90509D4C168C943090605D46FF48071FE
:1016D00001612046FFF76FFE20680169C943490692
:1016E00009D4C168C943490605D46FF040010161BE
:1016F000204600F015F820680169C94389060BD41B
:10170000C168C943890607D46FF0200101612046F2
:10171000BDE87040FFF751BE70BD7047704770471D
:10172000704710B5040002D0606F10B107E00120CF
:1017300010BD002084F87000204600F025F8242019
:1017400060672068016821F001010160204600F017
:10175000CDFB0128ECD0606A10B1204600F035FBCB
:101760002068416821F4904141602068816821F03F
:101770002A0181602068016841F001010160204672
:10178000BDE8104000F085BB10B586B004461421BA
:101790006846FEF750FD1249206888421ED1114864
:1017A000016E41F480410166016E01F480410591B2
:1017B000C16C41F00201C164C06C694600F00200D6
:1017C0000590C0200090022001900020029003208C
:1017D0000390072004900448FEF7B2FE06B010BD47
:1017E000003801400010024000040048FEE70000FD
:1017F00070B51B4886B0C16C41F00101C164C16C79
:1018000001F001010591C16C41F00201C164C16C9C
:1018100001F002010591C16C41F00401C164C06C8A
:10182000104E00F004004FF4804505900022294638
:101830003046FEF76FFF00246810CDE900046946CA
:1018400009480294FEF77CFE01200095CDE90104D1
:10185000694630460394FEF773FE06B070BD000083
:1018600000100240000400480008004810B588B08D
:101870000024124800940194029403940494059463
:101880004FF080410694016042F20F71C0E90114EB
:101890002821C0E903148461FFF7C0FD4FF4805094
:1018A000009069460548FFF707FE049404A9034821
:1018B0000694FFF783FD08B010BD0000C80F00209C
:1018C0000948084901604FF4E1314160002181601D
:1018D0000C22C160C0E904128161C16101624162F0
:1018E000FFF71FBF0038014008100020FEE77047D7
:1018F000704700002DE9F041444C05468846E068F9
:101900000026810728680DD0E16801F003018142BB
:1019100016D1A8B1E0686968C0F30210401C884283
:101920000ED120E0012804D0022805D0032807D1D9
:1019300008E02168890701E021684905002907DBE3
:1019400001265FE02168890302D421684903F5E795
:10195000E1686A686FF00F0321F0730103EB021274
:1019600011430143E160206820F080602060FEF7B1
:10197000D7FE074605E000BFFEF7D2FEC01B0228D7
:1019800037D820680001F7D4B8F1000F18D0B8F1AB
:10199000010F1ED0287D4FF07E41400801EB4060D2
:1019A000A96840EA01202169194A114008432061D1
:1019B000206840F080602060FEF7B2FE07461AE023
:1019C000A868E9680002090940EA41402169114A12
:1019D000EBE7288A1049400801EB4050A96840EA2B
:1019E000012021690D4AE0E7FEF79AFEC01B02289C
:1019F00001D9032606E020680001F5D52069A96910
:101A0000084320613046BDE8F0810000001002402C
:101A1000FF80FFF9FF80FDFF0000E0FFFF809FFFD8
:101A20002DE9F0413D4C06468846E06800258107D7
:101A300030680DD0E16801F00301814216D1A8B1F0
:101A4000E0687168C0F30210401C88420ED120E0AB
:101A5000012804D0022805D0032807D108E0216816
:101A6000890701E021684905002907DB012551E0CC
:101A70002168890302D421684903F5E7E1687268A7
:101A80006FF00F0321F0730103EB021211430143C6
:101A9000E160206820F080502060FEF741FE07469C
:101AA00005E000BFFEF73CFEC01B022829D82068D5
:101AB0008000F7D4B8F1000F15D0307C4FF07E4194
:101AC000400801EB4060B16840EA01206169144AB6
:101AD000114008436061206840F080502060FEF7AC
:101AE0001FFE07460FE0B068F1680002090940EAEE
:101AF000414061690B4AEBE7FEF712FEC01B02286A
:101B000001D9032506E020688000F5D56069716978
:101B1000084360612846BDE8F081000000100240E3
:101B2000FF80FFF9FF80FDFFF8B51C4D064600243D
:101B3000A86DC00002D5FEF7BDFE0DE0A86D40F017
:101B40008050A865A86D00F080500090FEF7B2FEAE
:101B5000A96D21F08051A965B0F5007F04D0802ED9
:101B600007D94FF003040AE0802E08D9A02E01D82F
:101B700004E001D1022402E0702E00D101240848C3
:101B8000016821F0070121430160006800F00700AF
:101B9000A04201D00120F8BD0020F8BD0010024095
:101BA00000200240704710B5FEF7C0FDBDE81040B0
:101BB000FFF7FDBB30B5B9B0442122A8FEF73BFBCF
:101BC000142133A8FEF737FB88216846FEF733FB64
:101BD000102001252290002428956020CDE929407D
:101BE00002202821CDE92C05CDE92E510721CDE990
:101BF0003010329022A8FFF749F90F2033900320CC
:101C0000CDE934043694042133A83794FFF732F831
:101C1000684600950E94FEF755FE6802FEF716FE24
:101C2000FFF7B8F84FF47A71B0FBF1F0FFF7ABFBB8
:101C30000420FFF79BFB00221146501EFEF7D4FD47
:101C400039B030BD0D48016841F4700101600C48A5
:101C5000016841F001010160002181600268094BC7
:101C60001A4002608214C260026822F4802202607C
:101C700081610249C00380390860704788ED00E047
:101C800000100240FFFFF6EA10B50348FFF783FC9F
:101C900002490120086010BDC80F0020000000208C
:101CA0002DE9F0470268264B264D274E274F284C3A
:101CB0004FF0804A984209D0504507D0A84205D03D
:101CC000B04203D0B84201D0A04204D122F0700C3F
:101CD0004A6842EA0C02DFF87CC0DFF87C80DFF85B
:101CE0007C9098420FD050450DD0A8420BD0B04206
:101CF00009D0B84207D0A04205D0604503D0404586
:101D000001D0484503D122F44075CA682A434D6981
:101D100022F080022A4302608A68C2620A688262F4
:101D2000984207D0A04205D0604503D0404501D07D
:101D3000484501D10969016301214161BDE8F0878E
:101D4000002C01400004004000080040000C00404E
:101D5000003401400040014000440140004801407F
:101D600010B5846842EA032224F47F440A432243E4
:101D7000826010BD826822F070020A4342F00701BF
:101D80008160704710B5036A046A24F0010404629C
:101D9000846924F0F00444EA021423F00A020A439E
:101DA0008461026210BD10B5036A23F01003036260
:101DB0008369046A23F4704343EA023224F0A003E7
:101DC00043EA01118261016210BD90F82410C90735
:101DD00006D001684A68836A22F400321A434A60D6
:101DE00090F82410890706D501684A68C36A22F46E
:101DF00080321A434A6090F82410490706D50168DA
:101E00004A68036B22F480221A434A6090F8241037
:101E1000090706D501684A68436B22F400421A4359
:101E20004A6090F82410C90606D501688A68836B59
:101E300022F480521A438A6090F82410890606D54D
:101E400001688A68C36B22F400521A438A6090F8D2
:101E50002410490611D501684A68036C22F48012E7
:101E60001A434A60016CB1F5801F06D101684A68C7
:101E7000436C22F4C0021A434A6090F82410090609
:101E800006D501684A68806C22F4002202434A6049
:101E90007047F8B500260446C667FEF741FC0546C4
:101EA000206800686FF07E47000708D52B460022A7
:101EB0004FF400112046009700F068F960B92068DF
:101EC000006840070AD52B4600224FF480012046C7
:101ED000009700F05BF908B10320F8BD202060678F
:101EE000A06784F870600020F8BD00002DE9F04183
:101EF0000546016880682B69EC6918436B69002707
:101F000023431843954A0B68954C234003430B60C9
:101F100028684168EB6821F4405119434160296801
:101F2000A869914201D02B6A18438B6823F430636F
:101F300003438B608B4B29688B4899420DD1D0F8B5
:101F4000880010F0030006D0012868D0022864D071
:101F5000032851D165E001244FE0844B99420BD115
:101F6000D0F8880010F00C0055D0042857D008286D
:101F700053D00C2840D154E07D4B99420BD1D0F87E
:101F8000880010F0300046D0102848D0202844D0D7
:101F9000302831D145E0774B99420BD1D0F88800F9
:101FA00010F0C00037D0402839D0802835D0C02864
:101FB00022D136E0704B99420ED1D0F8880010F44F
:101FC000407028D0B0F5807F29D0B0F5007F24D0B4
:101FD000B0F5407F10D124E091420DD1D0F88800B7
:101FE00010F4406017D0B0F5806F18D0B0F5006FD6
:101FF00013D0B0F5406F14D01024604B00264FF47E
:102000000040914245D174B1022C0FD0042C0FD066
:10201000082C18D10FE00024EFE70224EDE7042498
:10202000EBE70824E9E7FEF7BBFE03E0184602E011
:10203000FEF7DAFEA8B36A6802EB4201814202D8D9
:10204000B0EB023F01D9012775E0DFF834815CB1C4
:10205000022C0CD0042C13D0082CF4D150082105EC
:10206000401846F1000105E0FEF79AFE0AE050082C
:102070004449F5E70023FEF7A3F8A0F5407156E0C8
:10208000FEF7B2FE6A68010E03025008181871418B
:10209000F0E7E9694FF6EF7881422FD1092CD2D2CF
:1020A00000E048E0DFE804F0060920052305050507
:1020B0002600C8E7FEF774FE01E0FEF783FE41004C
:1020C000D5F8040001EB5001B1FBF0F080B2A0F1B3
:1020D00010014145B7D84FF6F0710140C0F34200FE
:1020E00001432868C16026E027496868EAE7FEF7EF
:1020F0007BFEE4E74FF480316868E3E7092CA2D265
:10210000DFE804F006091E052205050525009AE70B
:10211000FEF746FE01E0FEF755FE0146686801EB5A
:10212000500100BFB1FBF0F080B2A0F110014145B9
:1021300089D82968C8602E6638466E66BDE8F08189
:10214000686803EB5001EDE7FEF74EFEE5E76968CE
:1021500000EB5100B0FBF1F0E6E70000008000402A
:10216000F369FFEF003801400010024000440040D6
:1021700000480040004C0040005000400024F400A3
:10218000FFFC0F00000024F40048E8012DE9F041B5
:10219000984617460E460446069D08E0681C06D081
:1021A000FEF7BEFAA0EB0800A8420BD855B1206894
:1021B000C06936EA000017D00020B842EED00020F7
:1021C000BDE8F0812068016821F4D07101602068C9
:1021D000816821F00101816020206067A0670020F4
:1021E00084F870000320EBE70120E6E7FEE709072B
:1021F000090E002804DB00F1E02080F8001470478D
:1022000000F00F0000F1E02080F8141D704702E09C
:1022100008C8121F08C1002AFAD170477047002071
:1022200001E001C1121F002AFBD170478AB0FEF7FE
:1022300085FAFFF7BFFCFFF7DBFA24216846FDF7BC
:10224000FAFF3949374808600846FEF7EBF80025E1
:1022500000950195029503952A46694632480495F2
:10226000FEF753F8102269462F480395FEF74DF804
:10227000FFF7FCFAFFF724FB00212B48FEF721F9BA
:1022800010212948FEF71DF927481430FFF7FEF802
:10229000DFF898A04FF48049002249465046FEF7E7
:1022A00039FA234E4FF4005B59462248FEF72DFAC7
:1022B0000028F9D1DFF878804FF47A7708F1040824
:1022C000012249465046FEF725FA30680128F7D129
:1022D0003560BC420FDA002258F82430114612480B
:1022E000FEF7E2F858F82430002210210E48FEF7DD
:1022F000DBF8641CE4E7002249465046FEF70AFA80
:102300004FF4FA60FEF70AF90024234622462146DC
:102310000548FEF7C9F800231A4610210248FEF7C7
:10232000C3F8C1E700740040B40F00200004004867
:10233000000000200008004800000000000000002D
:102340000102030406070809A0860100400D0300EE
:10235000801A060000350C0040420F0080841E00E9
:1023600000093D0000127A000024F40000366E01DE
:102370000048E801006CDC020000000001020304D8
:10238000A023000800000020B40F0000B0020008E5
:1023900008240008B40F0020D40400001E22000806
:1023A00051220823790A1BB40C08220E339C0F4AD1
:1023B000100829103918192029282387051B4C03D8
:1023C0000822017264290829103918192009FD50C2
:1023D00009FD5009FD5009FD5009FD5009FD500946
:1023E000FD5009FD5009FD5009FD5009FD5009FD42
:1023F0005009FD5009FD5009FD50095D50193B1170
:08240000190F6113093D0000F2
:040000050800018965
:00000001FF
